{
    "contractName": "GlobalVariablePacking",
    "abi": [
        {
            "inputs": [],
            "name": "a",
            "outputs": [
                {
                    "internalType": "uint256",
                    "name": "",
                    "type": "uint256"
                }
            ],
            "stateMutability": "nonpayable",
            "type": "function"
        },
        {
            "inputs": [],
            "name": "a1",
            "outputs": [
                {
                    "internalType": "uint256",
                    "name": "",
                    "type": "uint256"
                }
            ],
            "stateMutability": "nonpayable",
            "type": "function"
        },
        {
            "inputs": [],
            "name": "a11",
            "outputs": [
                {
                    "internalType": "uint144",
                    "name": "",
                    "type": "uint144"
                }
            ],
            "stateMutability": "view",
            "type": "function"
        },
        {
            "inputs": [],
            "name": "a15",
            "outputs": [
                {
                    "internalType": "uint192",
                    "name": "",
                    "type": "uint192"
                }
            ],
            "stateMutability": "view",
            "type": "function"
        },
        {
            "inputs": [],
            "name": "a17",
            "outputs": [
                {
                    "internalType": "uint216",
                    "name": "",
                    "type": "uint216"
                }
            ],
            "stateMutability": "view",
            "type": "function"
        },
        {
            "inputs": [],
            "name": "a18",
            "outputs": [
                {
                    "internalType": "uint216",
                    "name": "",
                    "type": "uint216"
                }
            ],
            "stateMutability": "view",
            "type": "function"
        },
        {
            "inputs": [],
            "name": "a19",
            "outputs": [
                {
                    "internalType": "uint216",
                    "name": "",
                    "type": "uint216"
                }
            ],
            "stateMutability": "view",
            "type": "function"
        },
        {
            "inputs": [],
            "name": "a2",
            "outputs": [
                {
                    "internalType": "uint24",
                    "name": "",
                    "type": "uint24"
                }
            ],
            "stateMutability": "view",
            "type": "function"
        },
        {
            "inputs": [],
            "name": "a20",
            "outputs": [
                {
                    "internalType": "uint144",
                    "name": "",
                    "type": "uint144"
                }
            ],
            "stateMutability": "view",
            "type": "function"
        },
        {
            "inputs": [],
            "name": "a5",
            "outputs": [
                {
                    "internalType": "uint64",
                    "name": "",
                    "type": "uint64"
                }
            ],
            "stateMutability": "view",
            "type": "function"
        },
        {
            "inputs": [],
            "name": "a6",
            "outputs": [
                {
                    "internalType": "uint72",
                    "name": "",
                    "type": "uint72"
                }
            ],
            "stateMutability": "view",
            "type": "function"
        },
        {
            "inputs": [],
            "name": "a99",
            "outputs": [
                {
                    "internalType": "uint256",
                    "name": "",
                    "type": "uint256"
                }
            ],
            "stateMutability": "view",
            "type": "function"
        },
        {
            "inputs": [],
            "name": "asdf",
            "outputs": [
                {
                    "internalType": "uint192",
                    "name": "",
                    "type": "uint192"
                }
            ],
            "stateMutability": "view",
            "type": "function"
        },
        {
            "inputs": [],
            "name": "b",
            "outputs": [
                {
                    "internalType": "uint256",
                    "name": "",
                    "type": "uint256"
                }
            ],
            "stateMutability": "nonpayable",
            "type": "function"
        },
        {
            "inputs": [],
            "name": "c",
            "outputs": [],
            "stateMutability": "nonpayable",
            "type": "function"
        },
        {
            "inputs": [
                {
                    "internalType": "uint128",
                    "name": "_a",
                    "type": "uint128"
                },
                {
                    "internalType": "uint256",
                    "name": "_b",
                    "type": "uint256"
                },
                {
                    "internalType": "uint128",
                    "name": "_c",
                    "type": "uint128"
                }
            ],
            "name": "changeVariableValues",
            "outputs": [],
            "stateMutability": "nonpayable",
            "type": "function"
        },
        {
            "inputs": [],
            "name": "test1",
            "outputs": [
                {
                    "internalType": "bytes1",
                    "name": "",
                    "type": "bytes1"
                }
            ],
            "stateMutability": "view",
            "type": "function"
        }
    ],
    "bytecode": "608060405234801561001057600080fd5b50610565806100206000396000f3fe608060405234801561001057600080fd5b506004361061010b5760003560e01c80634ddf2ddf116100a25780636b59084d116100715780636b59084d14610268578063802a4b931461028e578063969e9d0c146102a15780639f095e88146102cb578063c3da42b8146102de57600080fd5b80634ddf2ddf146101e95780634df7e3d0146102145780635d398b791461021c578063615db6e11461023457600080fd5b806318afb463116100de57806318afb463146101895780633baee1421461019e57806347505380146101b1578063494ecda5146101e057600080fd5b80630dbe671f1461011057806310ea6f3b1461012b578063119552a11461015657806316961ffb1461015e575b600080fd5b6101186102e6565b6040519081526020015b60405180910390f35b60035461013e906001600160c01b031681565b6040516001600160c01b039091168152602001610122565b61011861033c565b600754610171906001600160d81b031681565b6040516001600160d81b039091168152602001610122565b61019c610197366004610464565b610365565b005b600654610171906001600160d81b031681565b6005546101c69068ffffffffffffffffff1681565b60405168ffffffffffffffffff9091168152602001610122565b61011860015481565b6002546101fc906001600160901b031681565b6040516001600160901b039091168152602001610122565b6101186103eb565b6000546101fc9061010090046001600160901b031681565b60035461024f90600160c01b900467ffffffffffffffff1681565b60405167ffffffffffffffff9091168152602001610122565b6000546102759060f81b81565b6040516001600160f81b03199091168152602001610122565b600454610171906001600160d81b031681565b6002546102b790600160901b900462ffffff1681565b60405162ffffff9091168152602001610122565b60085461013e906001600160c01b031681565b61019c610434565b600380546001600160c01b0316600160c11b8117909155601360015560008054610100600160981b031916808255909161032e916001600160901b03610100909104166104b6565b6001600160c01b0316905090565b600380546001600160c01b031916601317905560008054610100600160981b0319169055600a90565b6002546004546007546001600160901b03909216916001600160d81b0391821691610392918491166104dd565b61039c91906104dd565b6103a691906104dd565b6103b190600261050f565b600680546001600160d81b0319166001600160d81b039290921691909117905550506002805462ffffff60901b1916600360901b17905550565b6002805471ffffffffffffffffffffffffffffffffffff1916811790556005805468ffffffffffffffffff19169055600061042461033c565b60015561042f6102e6565b905090565b61043c6103eb565b50565b80356fffffffffffffffffffffffffffffffff8116811461045f57600080fd5b919050565b60008060006060848603121561047957600080fd5b6104828461043f565b9250602084013591506104976040850161043f565b90509250925092565b634e487b7160e01b600052601160045260246000fd5b6001600160c01b038181168382160190808211156104d6576104d66104a0565b5092915050565b6001600160d81b03828116828216818102831692918115828504821417610506576105066104a0565b50505092915050565b6001600160d81b038181168382160190808211156104d6576104d66104a056fea2646970667358221220b7221d8c7fd4400b5e2ca6e4cf2111e3a32e45c9c61c6871c89a64224f2cd70564736f6c63430008130033",
    "sourcePath": "/Users/ww/Desktop/CMPT479_Project/Solidity-Gas-Saver-VSCode-Extension/test_code/GlobalVariablePackingTest.sol",
    "compiler": {
        "name": "solc",
        "version": "0.8.19+commit.7dd6d404"
    },
    "functionHashes": {
        "a()": "0dbe671f",
        "a1()": "119552a1",
        "a11()": "5d398b79",
        "a15()": "10ea6f3b",
        "a17()": "3baee142",
        "a18()": "16961ffb",
        "a19()": "802a4b93",
        "a2()": "969e9d0c",
        "a20()": "4ddf2ddf",
        "a5()": "615db6e1",
        "a6()": "47505380",
        "a99()": "494ecda5",
        "asdf()": "9f095e88",
        "b()": "4df7e3d0",
        "c()": "c3da42b8",
        "changeVariableValues(uint128,uint256,uint128)": "18afb463",
        "test1()": "6b59084d"
    },
    "gasEstimates": {
        "creation": {
            "codeDepositCost": "276200",
            "executionCost": "318",
            "totalCost": "276518"
        },
        "external": {
            "a()": "70966",
            "a1()": "48730",
            "a11()": "2415",
            "a15()": "2383",
            "a17()": "2382",
            "a18()": "2427",
            "a19()": "2381",
            "a2()": "2396",
            "a20()": "2360",
            "a5()": "2419",
            "a6()": "2380",
            "a99()": "2373",
            "asdf()": "2425",
            "b()": "172963",
            "c()": "173008",
            "changeVariableValues(uint128,uint256,uint128)": "infinite",
            "test1()": "2350"
        }
    }
}